{
  "contractName": "Auction",
  "abi": [
    {
      "anonymous": false,
      "inputs": [
        {
          "indexed": false,
          "internalType": "address",
          "name": "beneficiary",
          "type": "address"
        },
        {
          "indexed": false,
          "internalType": "string",
          "name": "title",
          "type": "string"
        },
        {
          "indexed": false,
          "internalType": "string",
          "name": "description",
          "type": "string"
        },
        {
          "indexed": false,
          "internalType": "string",
          "name": "linkToImage",
          "type": "string"
        },
        {
          "indexed": false,
          "internalType": "address",
          "name": "winner",
          "type": "address"
        },
        {
          "indexed": false,
          "internalType": "uint256",
          "name": "amount",
          "type": "uint256"
        }
      ],
      "name": "AuctionEnded",
      "type": "event"
    },
    {
      "anonymous": false,
      "inputs": [
        {
          "indexed": false,
          "internalType": "address",
          "name": "bidder",
          "type": "address"
        },
        {
          "indexed": false,
          "internalType": "uint256",
          "name": "amount",
          "type": "uint256"
        }
      ],
      "name": "HighestBidIncreased",
      "type": "event"
    },
    {
      "inputs": [],
      "name": "auctionEndTime",
      "outputs": [
        {
          "internalType": "uint256",
          "name": "",
          "type": "uint256"
        }
      ],
      "stateMutability": "view",
      "type": "function",
      "constant": true
    },
    {
      "inputs": [],
      "name": "beneficiary",
      "outputs": [
        {
          "internalType": "address payable",
          "name": "",
          "type": "address"
        }
      ],
      "stateMutability": "view",
      "type": "function",
      "constant": true
    },
    {
      "inputs": [],
      "name": "description",
      "outputs": [
        {
          "internalType": "string",
          "name": "",
          "type": "string"
        }
      ],
      "stateMutability": "view",
      "type": "function",
      "constant": true
    },
    {
      "inputs": [],
      "name": "ended",
      "outputs": [
        {
          "internalType": "bool",
          "name": "",
          "type": "bool"
        }
      ],
      "stateMutability": "view",
      "type": "function",
      "constant": true
    },
    {
      "inputs": [],
      "name": "highestBid",
      "outputs": [
        {
          "internalType": "uint256",
          "name": "",
          "type": "uint256"
        }
      ],
      "stateMutability": "view",
      "type": "function",
      "constant": true
    },
    {
      "inputs": [],
      "name": "highestBidder",
      "outputs": [
        {
          "internalType": "address",
          "name": "",
          "type": "address"
        }
      ],
      "stateMutability": "view",
      "type": "function",
      "constant": true
    },
    {
      "inputs": [],
      "name": "linkToImage",
      "outputs": [
        {
          "internalType": "string",
          "name": "",
          "type": "string"
        }
      ],
      "stateMutability": "view",
      "type": "function",
      "constant": true
    },
    {
      "inputs": [],
      "name": "startingBid",
      "outputs": [
        {
          "internalType": "uint256",
          "name": "",
          "type": "uint256"
        }
      ],
      "stateMutability": "view",
      "type": "function",
      "constant": true
    },
    {
      "inputs": [],
      "name": "title",
      "outputs": [
        {
          "internalType": "string",
          "name": "",
          "type": "string"
        }
      ],
      "stateMutability": "view",
      "type": "function",
      "constant": true
    },
    {
      "inputs": [
        {
          "internalType": "address payable",
          "name": "_beneficiary",
          "type": "address"
        },
        {
          "internalType": "string",
          "name": "_title",
          "type": "string"
        },
        {
          "internalType": "string",
          "name": "_description",
          "type": "string"
        },
        {
          "internalType": "uint256",
          "name": "_startingBid",
          "type": "uint256"
        },
        {
          "internalType": "uint256",
          "name": "_biddingTime",
          "type": "uint256"
        },
        {
          "internalType": "string",
          "name": "_linkToImage",
          "type": "string"
        }
      ],
      "name": "init",
      "outputs": [],
      "stateMutability": "nonpayable",
      "type": "function"
    },
    {
      "inputs": [],
      "name": "bid",
      "outputs": [],
      "stateMutability": "payable",
      "type": "function",
      "payable": true
    },
    {
      "inputs": [],
      "name": "withdraw",
      "outputs": [
        {
          "internalType": "bool",
          "name": "",
          "type": "bool"
        }
      ],
      "stateMutability": "nonpayable",
      "type": "function"
    },
    {
      "inputs": [],
      "name": "endAuction",
      "outputs": [],
      "stateMutability": "nonpayable",
      "type": "function"
    }
  ],
  "bytecode": "0x608060405234801561001057600080fd5b50611330806100206000396000f3fe6080604052600436106100c25760003560e01c80634b449cba1161007f57806391f901571161005957806391f9015714610227578063b9fdd56914610252578063d57bde791461027d578063fe67a54b146102a8576100c2565b80634b449cba146101a857806371b81c1a146101d35780637284e416146101fc576100c2565b806312fa6feb146100c75780631998aeef146100f25780632b5eaf16146100fc57806338af3eed146101275780633ccfd60b146101525780634a79d50c1461017d575b600080fd5b3480156100d357600080fd5b506100dc6102bf565b6040516100e99190610ac2565b60405180910390f35b6100fa6102d2565b005b34801561010857600080fd5b506101116104a8565b60405161011e9190610b76565b60405180910390f35b34801561013357600080fd5b5061013c610536565b6040516101499190610bd9565b60405180910390f35b34801561015e57600080fd5b5061016761055a565b6040516101749190610ac2565b60405180910390f35b34801561018957600080fd5b5061019261067e565b60405161019f9190610b76565b60405180910390f35b3480156101b457600080fd5b506101bd61070c565b6040516101ca9190610c0d565b60405180910390f35b3480156101df57600080fd5b506101fa60048036038101906101f59190610cef565b610712565b005b34801561020857600080fd5b506102116107a1565b60405161021e9190610b76565b60405180910390f35b34801561023357600080fd5b5061023c61082f565b6040516102499190610dff565b60405180910390f35b34801561025e57600080fd5b50610267610855565b6040516102749190610c0d565b60405180910390f35b34801561028957600080fd5b5061029261085b565b60405161029f9190610c0d565b60405180910390f35b3480156102b457600080fd5b506102bd610861565b005b600960009054906101000a900460ff1681565b600154421115610317576040517f08c379a000000000000000000000000000000000000000000000000000000000815260040161030e90610e66565b60405180910390fd5b600454341161035b576040517f08c379a000000000000000000000000000000000000000000000000000000000815260040161035290610ef8565b60405180910390fd5b600754341161039f576040517f08c379a000000000000000000000000000000000000000000000000000000000815260040161039690610f64565b60405180910390fd5b600454600754146104255760075460086000600660009054906101000a900473ffffffffffffffffffffffffffffffffffffffff1673ffffffffffffffffffffffffffffffffffffffff1673ffffffffffffffffffffffffffffffffffffffff168152602001908152602001600020600082825461041d9190610fb3565b925050819055505b33600660006101000a81548173ffffffffffffffffffffffffffffffffffffffff021916908373ffffffffffffffffffffffffffffffffffffffff160217905550346007819055507ff4757a49b326036464bec6fe419a4ae38c8a02ce3e68bf0809674f6aab8ad300333460405161049e929190611009565b60405180910390a1565b600580546104b590611061565b80601f01602080910402602001604051908101604052809291908181526020018280546104e190611061565b801561052e5780601f106105035761010080835404028352916020019161052e565b820191906000526020600020905b81548152906001019060200180831161051157829003601f168201915b505050505081565b60008054906101000a900473ffffffffffffffffffffffffffffffffffffffff1681565b600080600860003373ffffffffffffffffffffffffffffffffffffffff1673ffffffffffffffffffffffffffffffffffffffff1681526020019081526020016000205490506000811115610675576000600860003373ffffffffffffffffffffffffffffffffffffffff1673ffffffffffffffffffffffffffffffffffffffff168152602001908152602001600020819055503373ffffffffffffffffffffffffffffffffffffffff166108fc829081150290604051600060405180830381858888f193505050506106745780600860003373ffffffffffffffffffffffffffffffffffffffff1673ffffffffffffffffffffffffffffffffffffffff16815260200190815260200160002081905550600091505061067b565b5b60019150505b90565b6002805461068b90611061565b80601f01602080910402602001604051908101604052809291908181526020018280546106b790611061565b80156107045780601f106106d957610100808354040283529160200191610704565b820191906000526020600020905b8154815290600101906020018083116106e757829003601f168201915b505050505081565b60015481565b886000806101000a81548173ffffffffffffffffffffffffffffffffffffffff021916908373ffffffffffffffffffffffffffffffffffffffff1602179055508260018190555087876002919061076a929190610a04565b5085856003919061077c929190610a04565b5083600481905550818160059190610795929190610a04565b50505050505050505050565b600380546107ae90611061565b80601f01602080910402602001604051908101604052809291908181526020018280546107da90611061565b80156108275780601f106107fc57610100808354040283529160200191610827565b820191906000526020600020905b81548152906001019060200180831161080a57829003601f168201915b505050505081565b600660009054906101000a900473ffffffffffffffffffffffffffffffffffffffff1681565b60045481565b60075481565b6001544210156108a6576040517f08c379a000000000000000000000000000000000000000000000000000000000815260040161089d906110de565b60405180910390fd5b600960009054906101000a900460ff16156108f6576040517f08c379a00000000000000000000000000000000000000000000000000000000081526004016108ed90611170565b60405180910390fd5b6001600960006101000a81548160ff0219169083151502179055507f59f44a4522242dfa7ac6925baa3495b570439a9a01d5ef5c383eb1b83f83c1b060008054906101000a900473ffffffffffffffffffffffffffffffffffffffff16600260036005600660009054906101000a900473ffffffffffffffffffffffffffffffffffffffff1660075460405161099196959493929190611284565b60405180910390a160008054906101000a900473ffffffffffffffffffffffffffffffffffffffff1673ffffffffffffffffffffffffffffffffffffffff166108fc6007549081150290604051600060405180830381858888f19350505050158015610a01573d6000803e3d6000fd5b50565b828054610a1090611061565b90600052602060002090601f016020900481019282610a325760008555610a79565b82601f10610a4b57803560ff1916838001178555610a79565b82800160010185558215610a79579182015b82811115610a78578235825591602001919060010190610a5d565b5b509050610a869190610a8a565b5090565b5b80821115610aa3576000816000905550600101610a8b565b5090565b60008115159050919050565b610abc81610aa7565b82525050565b6000602082019050610ad76000830184610ab3565b92915050565b600081519050919050565b600082825260208201905092915050565b60005b83811015610b17578082015181840152602081019050610afc565b83811115610b26576000848401525b50505050565b6000601f19601f8301169050919050565b6000610b4882610add565b610b528185610ae8565b9350610b62818560208601610af9565b610b6b81610b2c565b840191505092915050565b60006020820190508181036000830152610b908184610b3d565b905092915050565b600073ffffffffffffffffffffffffffffffffffffffff82169050919050565b6000610bc382610b98565b9050919050565b610bd381610bb8565b82525050565b6000602082019050610bee6000830184610bca565b92915050565b6000819050919050565b610c0781610bf4565b82525050565b6000602082019050610c226000830184610bfe565b92915050565b600080fd5b600080fd5b610c3b81610bb8565b8114610c4657600080fd5b50565b600081359050610c5881610c32565b92915050565b600080fd5b600080fd5b600080fd5b60008083601f840112610c8357610c82610c5e565b5b8235905067ffffffffffffffff811115610ca057610c9f610c63565b5b602083019150836001820283011115610cbc57610cbb610c68565b5b9250929050565b610ccc81610bf4565b8114610cd757600080fd5b50565b600081359050610ce981610cc3565b92915050565b600080600080600080600080600060c08a8c031215610d1157610d10610c28565b5b6000610d1f8c828d01610c49565b99505060208a013567ffffffffffffffff811115610d4057610d3f610c2d565b5b610d4c8c828d01610c6d565b985098505060408a013567ffffffffffffffff811115610d6f57610d6e610c2d565b5b610d7b8c828d01610c6d565b96509650506060610d8e8c828d01610cda565b9450506080610d9f8c828d01610cda565b93505060a08a013567ffffffffffffffff811115610dc057610dbf610c2d565b5b610dcc8c828d01610c6d565b92509250509295985092959850929598565b6000610de982610b98565b9050919050565b610df981610dde565b82525050565b6000602082019050610e146000830184610df0565b92915050565b7f41756374696f6e20616c726561647920656e6465642e00000000000000000000600082015250565b6000610e50601683610ae8565b9150610e5b82610e1a565b602082019050919050565b60006020820190508181036000830152610e7f81610e43565b9050919050565b7f426964206d75737420626520626967676572207468616e20746865207374617260008201527f74696e6720616d6f756e742e0000000000000000000000000000000000000000602082015250565b6000610ee2602c83610ae8565b9150610eed82610e86565b604082019050919050565b60006020820190508181036000830152610f1181610ed5565b9050919050565b7f546865726520616c7265616479206973206120686967686572206269642e0000600082015250565b6000610f4e601e83610ae8565b9150610f5982610f18565b602082019050919050565b60006020820190508181036000830152610f7d81610f41565b9050919050565b7f4e487b7100000000000000000000000000000000000000000000000000000000600052601160045260246000fd5b6000610fbe82610bf4565b9150610fc983610bf4565b9250827fffffffffffffffffffffffffffffffffffffffffffffffffffffffffffffffff03821115610ffe57610ffd610f84565b5b828201905092915050565b600060408201905061101e6000830185610df0565b61102b6020830184610bfe565b9392505050565b7f4e487b7100000000000000000000000000000000000000000000000000000000600052602260045260246000fd5b6000600282049050600182168061107957607f821691505b60208210810361108c5761108b611032565b5b50919050565b7f41756374696f6e206e6f742079657420656e6465642e00000000000000000000600082015250565b60006110c8601683610ae8565b91506110d382611092565b602082019050919050565b600060208201905081810360008301526110f7816110bb565b9050919050565b7f61756374696f6e456e642068617320616c7265616479206265656e2063616c6c60008201527f65642e0000000000000000000000000000000000000000000000000000000000602082015250565b600061115a602383610ae8565b9150611165826110fe565b604082019050919050565b600060208201905081810360008301526111898161114d565b9050919050565b6000819050919050565b60006111b56111b06111ab84610b98565b611190565b610b98565b9050919050565b60006111c78261119a565b9050919050565b60006111d9826111bc565b9050919050565b6111e9816111ce565b82525050565b60008190508160005260206000209050919050565b6000815461121181611061565b61121b8186610ae8565b9450600182166000811461123657600181146112485761127b565b60ff198316865260208601935061127b565b611251856111ef565b60005b8381101561127357815481890152600182019150602081019050611254565b808801955050505b50505092915050565b600060c08201905061129960008301896111e0565b81810360208301526112ab8188611204565b905081810360408301526112bf8187611204565b905081810360608301526112d38186611204565b90506112e26080830185610df0565b6112ef60a0830184610bfe565b97965050505050505056fea26469706673582212202321c75dab11a2f72e5ca98ef68f6df7baa30878765588275dda57ed4f20adae64736f6c634300080d0033",
  "immutableReferences": {},
  "source": "// SPDX-License-Identifier: GPL-3.0\r\npragma solidity ^0.8.12;\r\ncontract Auction {\r\n   \r\n    // Parameters of the auction. Times are either\r\n    // absolute unix timestamps (seconds since 1970-01-01)\r\n    // or time periods in seconds.\r\n    address payable public beneficiary;\r\n    uint public auctionEndTime;\r\n    string public title;\r\n    string public description;\r\n    uint public startingBid;\r\n    string public linkToImage;\r\n    // Current state of the auction.\r\n    address public highestBidder;\r\n    uint public highestBid;\r\n\r\n    // Allowed withdrawals of previous bids\r\n    mapping(address => uint) pendingReturns;\r\n\r\n    // Set to true at the end, disallows any change.\r\n    // By default initialized to `false`.\r\n    bool public ended;\r\n\r\n    // Events that will be emitted on changes.\r\n    event HighestBidIncreased(address bidder, uint amount);\r\n    event AuctionEnded(address beneficiary,string title, \r\n            string description,\r\n            string linkToImage,\r\n            address winner, \r\n            uint amount);\r\n\r\n    // The following is a so-called natspec comment,\r\n    // recognizable by the three slashes.\r\n    // It will be shown when the user is asked to\r\n    // confirm a transaction.\r\n\r\n    /// Create a simple auction with `_biddingTime`\r\n    /// seconds bidding time on behalf of the\r\n    /// beneficiary address `_beneficiary`.\r\n   function init(\r\n        address payable _beneficiary,\r\n        string calldata _title,\r\n        string calldata _description,\r\n        uint _startingBid,\r\n        uint _biddingTime,\r\n        string calldata _linkToImage\r\n    ) external {\r\n        beneficiary = _beneficiary;\r\n        auctionEndTime = _biddingTime;\r\n        title = _title;\r\n        description = _description;\r\n        startingBid = _startingBid;\r\n        linkToImage = _linkToImage;\r\n    }\r\n\r\n    /// Bid on the auction with the value sent\r\n    /// together with this transaction.\r\n    /// The value will only be refunded if the\r\n    /// auction is not won.\r\n    function bid() external payable {\r\n        // No arguments are necessary, all\r\n        // information is already part of\r\n        // the transaction. The keyword payable\r\n        // is required for the function to\r\n        // be able to receive Ether.\r\n\r\n        // Revert the call if the bidding\r\n        // period is over.\r\n        require(\r\n            block.timestamp <= auctionEndTime,\r\n            \"Auction already ended.\"\r\n        );\r\n\r\n        require(msg.value > startingBid,\r\n            \"Bid must be bigger than the starting amount.\"\r\n        );\r\n\r\n        // If the bid is not higher, send the\r\n        // money back.\r\n        require(\r\n            msg.value > highestBid,\r\n            \"There already is a higher bid.\"\r\n        );\r\n\r\n        if (highestBid != startingBid) {\r\n            // Sending back the money by simply using\r\n            // highestBidder.send(highestBid) is a security risk\r\n            // because it could execute an untrusted contract.\r\n            // It is always safer to let the recipients\r\n            // withdraw their money themselves.\r\n            pendingReturns[highestBidder] += highestBid;\r\n        }\r\n        highestBidder = msg.sender;\r\n        highestBid = msg.value;\r\n        emit HighestBidIncreased(msg.sender, msg.value);\r\n    }\r\n\r\n    /// Withdraw a bid that was overbid.\r\n    function withdraw() external returns (bool) {\r\n        uint amount = pendingReturns[msg.sender];\r\n        if (amount > 0) {\r\n            // It is important to set this to zero because the recipient\r\n            // can call this function again as part of the receiving call\r\n            // before `send` returns.\r\n            pendingReturns[msg.sender] = 0;\r\n\r\n            if (!payable(msg.sender).send(amount)) {\r\n                // No need to call throw here, just reset the amount owing\r\n                pendingReturns[msg.sender] = amount;\r\n                return false;\r\n            }\r\n        }\r\n        return true;\r\n    }\r\n\r\n    /// End the auction and send the highest bid\r\n    /// to the beneficiary.\r\n    function endAuction() public {\r\n        // It is a good guideline to structure functions that interact\r\n        // with other contracts (i.e. they call functions or send Ether)\r\n        // into three phases:\r\n        // 1. checking conditions\r\n        // 2. performing actions (potentially changing conditions)\r\n        // 3. interacting with other contracts\r\n        // If these phases are mixed up, the other contract could call\r\n        // back into the current contract and modify the state or cause\r\n        // effects (ether payout) to be performed multiple times.\r\n        // If functions called internally include interaction with external\r\n        // contracts, they also have to be considered interaction with\r\n        // external contracts.\r\n\r\n        // 1. Conditions\r\n        require(block.timestamp >= auctionEndTime, \"Auction not yet ended.\");\r\n        require(!ended, \"auctionEnd has already been called.\");\r\n\r\n        // 2. Effects\r\n        ended = true;    //seller\r\n        emit AuctionEnded(beneficiary, title, description, linkToImage, highestBidder, highestBid);\r\n\r\n        // 3. Interaction\r\n        beneficiary.transfer(highestBid);\r\n    }\r\n    \r\n}",
  "sourcePath": "C:\\Users\\mira\\source\\repos\\AuctionSystemDApp\\contracts\\Auction.sol",
  "compiler": {
    "name": "solc",
    "version": "0.8.13+commit.abaa5c0e.Emscripten.clang"
  },
  "schemaVersion": "3.4.7",
  "updatedAt": "2022-04-16T17:41:42.082Z",
  "networkType": "ethereum",
  "devdoc": {
    "kind": "dev",
    "methods": {},
    "version": 1
  },
  "userdoc": {
    "kind": "user",
    "methods": {
      "bid()": {
        "notice": "Bid on the auction with the value sent together with this transaction. The value will only be refunded if the auction is not won."
      },
      "endAuction()": {
        "notice": "End the auction and send the highest bid to the beneficiary."
      },
      "init(address,string,string,uint256,uint256,string)": {
        "notice": "Create a simple auction with `_biddingTime` seconds bidding time on behalf of the beneficiary address `_beneficiary`."
      },
      "withdraw()": {
        "notice": "Withdraw a bid that was overbid."
      }
    },
    "version": 1
  }
}