{
  "contractName": "AuctionFactory",
  "abi": [
    {
      "inputs": [
        {
          "internalType": "address",
          "name": "_masterContract",
          "type": "address"
        }
      ],
      "stateMutability": "nonpayable",
      "type": "constructor"
    },
    {
      "anonymous": false,
      "inputs": [
        {
          "indexed": false,
          "internalType": "address",
          "name": "_auctionAddress",
          "type": "address"
        },
        {
          "indexed": false,
          "internalType": "address",
          "name": "_beneficiary",
          "type": "address"
        },
        {
          "indexed": false,
          "internalType": "string",
          "name": "_title",
          "type": "string"
        },
        {
          "indexed": false,
          "internalType": "string",
          "name": "_description",
          "type": "string"
        },
        {
          "indexed": false,
          "internalType": "uint256",
          "name": "_startingBid",
          "type": "uint256"
        },
        {
          "indexed": false,
          "internalType": "uint256",
          "name": "_biddingTime",
          "type": "uint256"
        },
        {
          "indexed": false,
          "internalType": "string",
          "name": "_linkToImage",
          "type": "string"
        }
      ],
      "name": "AuctionCreated",
      "type": "event"
    },
    {
      "inputs": [
        {
          "internalType": "address payable",
          "name": "_beneficiary",
          "type": "address"
        },
        {
          "internalType": "string",
          "name": "_title",
          "type": "string"
        },
        {
          "internalType": "string",
          "name": "_description",
          "type": "string"
        },
        {
          "internalType": "uint256",
          "name": "_startingBid",
          "type": "uint256"
        },
        {
          "internalType": "uint256",
          "name": "_biddingTime",
          "type": "uint256"
        },
        {
          "internalType": "string",
          "name": "_linkToImage",
          "type": "string"
        }
      ],
      "name": "createAuction",
      "outputs": [
        {
          "internalType": "address",
          "name": "",
          "type": "address"
        }
      ],
      "stateMutability": "nonpayable",
      "type": "function"
    },
    {
      "inputs": [
        {
          "internalType": "uint256",
          "name": "index",
          "type": "uint256"
        }
      ],
      "name": "getAuction",
      "outputs": [
        {
          "internalType": "contract Auction",
          "name": "",
          "type": "address"
        }
      ],
      "stateMutability": "view",
      "type": "function",
      "constant": true
    },
    {
      "inputs": [],
      "name": "getAuctions",
      "outputs": [
        {
          "internalType": "contract Auction[]",
          "name": "",
          "type": "address[]"
        }
      ],
      "stateMutability": "view",
      "type": "function",
      "constant": true
    }
  ],
  "bytecode": "0x608060405234801561001057600080fd5b50604051610ba2380380610ba2833981810160405281019061003291906100dc565b80600160006101000a81548173ffffffffffffffffffffffffffffffffffffffff021916908373ffffffffffffffffffffffffffffffffffffffff16021790555050610109565b600080fd5b600073ffffffffffffffffffffffffffffffffffffffff82169050919050565b60006100a98261007e565b9050919050565b6100b98161009e565b81146100c457600080fd5b50565b6000815190506100d6816100b0565b92915050565b6000602082840312156100f2576100f1610079565b5b6000610100848285016100c7565b91505092915050565b610a8a806101186000396000f3fe608060405234801561001057600080fd5b50600436106100415760003560e01c806378bd793514610046578063d7c0691914610076578063e47f405d14610094575b600080fd5b610060600480360381019061005b919061041c565b6100c4565b60405161006d91906104c8565b60405180910390f35b61007e610160565b60405161008b91906105a1565b60405180910390f35b6100ae60048036038101906100a99190610666565b6101ee565b6040516100bb9190610776565b60405180910390f35b60008082101580156100db57506000805490508211155b61011a576040517f08c379a0000000000000000000000000000000000000000000000000000000008152600401610111906107ee565b60405180910390fd5b6000828154811061012e5761012d61080e565b5b9060005260206000200160009054906101000a900473ffffffffffffffffffffffffffffffffffffffff169050919050565b606060008054806020026020016040519081016040528092919081815260200182805480156101e457602002820191906000526020600020905b8160009054906101000a900473ffffffffffffffffffffffffffffffffffffffff1673ffffffffffffffffffffffffffffffffffffffff168152602001906001019080831161019a575b5050505050905090565b60008061021c600160009054906101000a900473ffffffffffffffffffffffffffffffffffffffff16610372565b90508073ffffffffffffffffffffffffffffffffffffffff166371b81c1a8c8c8c8c8c8c8c4261024c919061086c565b8c8c6040518a63ffffffff1660e01b81526004016102729998979695949392919061092d565b600060405180830381600087803b15801561028c57600080fd5b505af11580156102a0573d6000803e3d6000fd5b505050506000819080600181540180825580915050600190039060005260206000200160009091909190916101000a81548173ffffffffffffffffffffffffffffffffffffffff021916908373ffffffffffffffffffffffffffffffffffffffff16021790555060008190507f3b2f4b56f2524d75b56f28a37f40f9f13b66d7e219c47a727dd2dd606732c1b5818d8d8d8d8d8d8d42610340919061086c565b8d8d6040516103589a999897969594939291906109ca565b60405180910390a180925050509998505050505050505050565b6000808260601b90506040517f3d602d80600a3d3981f3363d3d373d3d3d363d7300000000000000000000000081528160148201527f5af43d82803e903d91602b57fd5bf3000000000000000000000000000000000060288201526037816000f092505050919050565b600080fd5b600080fd5b6000819050919050565b6103f9816103e6565b811461040457600080fd5b50565b600081359050610416816103f0565b92915050565b600060208284031215610432576104316103dc565b5b600061044084828501610407565b91505092915050565b600073ffffffffffffffffffffffffffffffffffffffff82169050919050565b6000819050919050565b600061048e61048961048484610449565b610469565b610449565b9050919050565b60006104a082610473565b9050919050565b60006104b282610495565b9050919050565b6104c2816104a7565b82525050565b60006020820190506104dd60008301846104b9565b92915050565b600081519050919050565b600082825260208201905092915050565b6000819050602082019050919050565b610518816104a7565b82525050565b600061052a838361050f565b60208301905092915050565b6000602082019050919050565b600061054e826104e3565b61055881856104ee565b9350610563836104ff565b8060005b8381101561059457815161057b888261051e565b975061058683610536565b925050600181019050610567565b5085935050505092915050565b600060208201905081810360008301526105bb8184610543565b905092915050565b60006105ce82610449565b9050919050565b6105de816105c3565b81146105e957600080fd5b50565b6000813590506105fb816105d5565b92915050565b600080fd5b600080fd5b600080fd5b60008083601f84011261062657610625610601565b5b8235905067ffffffffffffffff81111561064357610642610606565b5b60208301915083600182028301111561065f5761065e61060b565b5b9250929050565b600080600080600080600080600060c08a8c031215610688576106876103dc565b5b60006106968c828d016105ec565b99505060208a013567ffffffffffffffff8111156106b7576106b66103e1565b5b6106c38c828d01610610565b985098505060408a013567ffffffffffffffff8111156106e6576106e56103e1565b5b6106f28c828d01610610565b965096505060606107058c828d01610407565b94505060806107168c828d01610407565b93505060a08a013567ffffffffffffffff811115610737576107366103e1565b5b6107438c828d01610610565b92509250509295985092959850929598565b600061076082610449565b9050919050565b61077081610755565b82525050565b600060208201905061078b6000830184610767565b92915050565b600082825260208201905092915050565b7f496e646578206f7574206f6620626f756e647300000000000000000000000000600082015250565b60006107d8601383610791565b91506107e3826107a2565b602082019050919050565b60006020820190508181036000830152610807816107cb565b9050919050565b7f4e487b7100000000000000000000000000000000000000000000000000000000600052603260045260246000fd5b7f4e487b7100000000000000000000000000000000000000000000000000000000600052601160045260246000fd5b6000610877826103e6565b9150610882836103e6565b9250827fffffffffffffffffffffffffffffffffffffffffffffffffffffffffffffffff038211156108b7576108b661083d565b5b828201905092915050565b6108cb816105c3565b82525050565b82818337600083830152505050565b6000601f19601f8301169050919050565b60006108fd8385610791565b935061090a8385846108d1565b610913836108e0565b840190509392505050565b610927816103e6565b82525050565b600060c082019050610942600083018c6108c2565b8181036020830152610955818a8c6108f1565b9050818103604083015261096a81888a6108f1565b9050610979606083018761091e565b610986608083018661091e565b81810360a08301526109998184866108f1565b90509a9950505050505050505050565b60006109b482610495565b9050919050565b6109c4816109a9565b82525050565b600060e0820190506109df600083018d610767565b6109ec602083018c6109bb565b81810360408301526109ff818a8c6108f1565b90508181036060830152610a1481888a6108f1565b9050610a23608083018761091e565b610a3060a083018661091e565b81810360c0830152610a438184866108f1565b90509b9a505050505050505050505056fea264697066735822122003e21aca7e824be172613fbcd9062485cf31fcd9b4f04b86171b9136bb24c1cf64736f6c634300080d0033",
  "immutableReferences": {},
  "source": "// SPDX-License-Identifier: GPL-3.0\r\npragma solidity ^0.8.12;\r\n\r\nimport { Auction } from './Auction.sol';\r\nimport { CloneFactory } from './CloneFactory.sol';\r\n\r\n//Using CloneFactory pattern to optimise gas costs\r\ncontract AuctionFactory is CloneFactory {\r\n    Auction[] auctions;\r\n    address masterContract; // Needed for CloneFactory\r\n\r\n     constructor(address _masterContract) {\r\n         masterContract = _masterContract;\r\n     }\r\n    event AuctionCreated(address _auctionAddress,  \r\n    address _beneficiary,\r\n    string _title, \r\n    string _description,\r\n    uint _startingBid, \r\n    uint _biddingTime, string _linkToImage);\r\n    \r\n    function createAuction(address payable _beneficiary, \r\n    string calldata _title, \r\n    string calldata _description,\r\n    uint _startingBid,\r\n    uint _biddingTime,\r\n    string calldata _linkToImage) external returns(address) {\r\n        Auction newAuction = Auction(createClone(masterContract));\r\n        newAuction.init(_beneficiary, _title, _description, _startingBid,  block.timestamp +  _biddingTime, _linkToImage);\r\n        auctions.push(newAuction);\r\n        address newAuctionAddress = address(newAuction);\r\n        emit AuctionCreated(newAuctionAddress, _beneficiary, _title, _description, _startingBid,  block.timestamp + _biddingTime, _linkToImage);\r\n        return newAuctionAddress;\r\n    }\r\n\r\n    function getAuction(uint index) external view returns(Auction){\r\n         require(index >=0 && index <= auctions.length,  \"Index out of bounds\");\r\n         return auctions[index];\r\n     }\r\n\r\n    function getAuctions() external view returns(Auction[] memory)\r\n    {\r\n        return auctions;\r\n    }\r\n}",
  "sourcePath": "C:\\Users\\mira\\source\\repos\\AuctionSystemDApp\\contracts\\AuctionFactory.sol",
  "compiler": {
    "name": "solc",
    "version": "0.8.13+commit.abaa5c0e.Emscripten.clang"
  },
  "schemaVersion": "3.4.7",
  "updatedAt": "2022-04-18T17:41:26.774Z",
  "networkType": "ethereum",
  "devdoc": {
    "kind": "dev",
    "methods": {},
    "version": 1
  },
  "userdoc": {
    "kind": "user",
    "methods": {},
    "version": 1
  }
}