{
  "contractName": "Auction",
  "abi": [
    {
      "anonymous": false,
      "inputs": [
        {
          "indexed": false,
          "internalType": "address",
          "name": "winner",
          "type": "address"
        },
        {
          "indexed": false,
          "internalType": "uint256",
          "name": "amount",
          "type": "uint256"
        }
      ],
      "name": "AuctionEnded",
      "type": "event"
    },
    {
      "anonymous": false,
      "inputs": [
        {
          "indexed": false,
          "internalType": "address",
          "name": "bidder",
          "type": "address"
        },
        {
          "indexed": false,
          "internalType": "uint256",
          "name": "amount",
          "type": "uint256"
        }
      ],
      "name": "HighestBidIncreased",
      "type": "event"
    },
    {
      "inputs": [],
      "name": "auctionEndTime",
      "outputs": [
        {
          "internalType": "uint256",
          "name": "",
          "type": "uint256"
        }
      ],
      "stateMutability": "view",
      "type": "function",
      "constant": true
    },
    {
      "inputs": [],
      "name": "beneficiary",
      "outputs": [
        {
          "internalType": "address payable",
          "name": "",
          "type": "address"
        }
      ],
      "stateMutability": "view",
      "type": "function",
      "constant": true
    },
    {
      "inputs": [],
      "name": "description",
      "outputs": [
        {
          "internalType": "string",
          "name": "",
          "type": "string"
        }
      ],
      "stateMutability": "view",
      "type": "function",
      "constant": true
    },
    {
      "inputs": [],
      "name": "highestBid",
      "outputs": [
        {
          "internalType": "uint256",
          "name": "",
          "type": "uint256"
        }
      ],
      "stateMutability": "view",
      "type": "function",
      "constant": true
    },
    {
      "inputs": [],
      "name": "highestBidder",
      "outputs": [
        {
          "internalType": "address",
          "name": "",
          "type": "address"
        }
      ],
      "stateMutability": "view",
      "type": "function",
      "constant": true
    },
    {
      "inputs": [],
      "name": "linkToImage",
      "outputs": [
        {
          "internalType": "string",
          "name": "",
          "type": "string"
        }
      ],
      "stateMutability": "view",
      "type": "function",
      "constant": true
    },
    {
      "inputs": [],
      "name": "startingBid",
      "outputs": [
        {
          "internalType": "uint256",
          "name": "",
          "type": "uint256"
        }
      ],
      "stateMutability": "view",
      "type": "function",
      "constant": true
    },
    {
      "inputs": [],
      "name": "title",
      "outputs": [
        {
          "internalType": "string",
          "name": "",
          "type": "string"
        }
      ],
      "stateMutability": "view",
      "type": "function",
      "constant": true
    },
    {
      "inputs": [
        {
          "internalType": "address payable",
          "name": "_beneficiary",
          "type": "address"
        },
        {
          "internalType": "string",
          "name": "_title",
          "type": "string"
        },
        {
          "internalType": "string",
          "name": "_description",
          "type": "string"
        },
        {
          "internalType": "uint256",
          "name": "_startingBid",
          "type": "uint256"
        },
        {
          "internalType": "uint256",
          "name": "_biddingTime",
          "type": "uint256"
        },
        {
          "internalType": "string",
          "name": "_linkToImage",
          "type": "string"
        }
      ],
      "name": "init",
      "outputs": [],
      "stateMutability": "nonpayable",
      "type": "function"
    },
    {
      "inputs": [],
      "name": "bid",
      "outputs": [],
      "stateMutability": "payable",
      "type": "function",
      "payable": true
    },
    {
      "inputs": [],
      "name": "withdraw",
      "outputs": [
        {
          "internalType": "bool",
          "name": "",
          "type": "bool"
        }
      ],
      "stateMutability": "nonpayable",
      "type": "function"
    },
    {
      "inputs": [],
      "name": "endAuction",
      "outputs": [],
      "stateMutability": "nonpayable",
      "type": "function"
    }
  ],
  "bytecode": "0x608060405234801561001057600080fd5b5061114e806100206000396000f3fe6080604052600436106100a75760003560e01c806371b81c1a1161006457806371b81c1a1461018d5780637284e416146101b657806391f90157146101e1578063b9fdd5691461020c578063d57bde7914610237578063fe67a54b14610262576100a7565b80631998aeef146100ac5780632b5eaf16146100b657806338af3eed146100e15780633ccfd60b1461010c5780634a79d50c146101375780634b449cba14610162575b600080fd5b6100b4610279565b005b3480156100c257600080fd5b506100cb61044f565b6040516100d89190610ac7565b60405180910390f35b3480156100ed57600080fd5b506100f66104dd565b6040516101039190610b2a565b60405180910390f35b34801561011857600080fd5b50610121610501565b60405161012e9190610b60565b60405180910390f35b34801561014357600080fd5b5061014c610625565b6040516101599190610ac7565b60405180910390f35b34801561016e57600080fd5b506101776106b3565b6040516101849190610b94565b60405180910390f35b34801561019957600080fd5b506101b460048036038101906101af9190610c76565b6106b9565b005b3480156101c257600080fd5b506101cb610753565b6040516101d89190610ac7565b60405180910390f35b3480156101ed57600080fd5b506101f66107e1565b6040516102039190610d86565b60405180910390f35b34801561021857600080fd5b50610221610807565b60405161022e9190610b94565b60405180910390f35b34801561024357600080fd5b5061024c61080d565b6040516102599190610b94565b60405180910390f35b34801561026e57600080fd5b50610277610813565b005b6001544211156102be576040517f08c379a00000000000000000000000000000000000000000000000000000000081526004016102b590610ded565b60405180910390fd5b6004543411610302576040517f08c379a00000000000000000000000000000000000000000000000000000000081526004016102f990610e7f565b60405180910390fd5b6007543411610346576040517f08c379a000000000000000000000000000000000000000000000000000000000815260040161033d90610eeb565b60405180910390fd5b600454600754146103cc5760075460086000600660009054906101000a900473ffffffffffffffffffffffffffffffffffffffff1673ffffffffffffffffffffffffffffffffffffffff1673ffffffffffffffffffffffffffffffffffffffff16815260200190815260200160002060008282546103c49190610f3a565b925050819055505b33600660006101000a81548173ffffffffffffffffffffffffffffffffffffffff021916908373ffffffffffffffffffffffffffffffffffffffff160217905550346007819055507ff4757a49b326036464bec6fe419a4ae38c8a02ce3e68bf0809674f6aab8ad3003334604051610445929190610f90565b60405180910390a1565b6005805461045c90610fe8565b80601f016020809104026020016040519081016040528092919081815260200182805461048890610fe8565b80156104d55780601f106104aa576101008083540402835291602001916104d5565b820191906000526020600020905b8154815290600101906020018083116104b857829003601f168201915b505050505081565b60008054906101000a900473ffffffffffffffffffffffffffffffffffffffff1681565b600080600860003373ffffffffffffffffffffffffffffffffffffffff1673ffffffffffffffffffffffffffffffffffffffff168152602001908152602001600020549050600081111561061c576000600860003373ffffffffffffffffffffffffffffffffffffffff1673ffffffffffffffffffffffffffffffffffffffff168152602001908152602001600020819055503373ffffffffffffffffffffffffffffffffffffffff166108fc829081150290604051600060405180830381858888f1935050505061061b5780600860003373ffffffffffffffffffffffffffffffffffffffff1673ffffffffffffffffffffffffffffffffffffffff168152602001908152602001600020819055506000915050610622565b5b60019150505b90565b6002805461063290610fe8565b80601f016020809104026020016040519081016040528092919081815260200182805461065e90610fe8565b80156106ab5780601f10610680576101008083540402835291602001916106ab565b820191906000526020600020905b81548152906001019060200180831161068e57829003601f168201915b505050505081565b60015481565b886000806101000a81548173ffffffffffffffffffffffffffffffffffffffff021916908373ffffffffffffffffffffffffffffffffffffffff16021790555082426107059190610f3a565b60018190555087876002919061071c92919061098b565b5085856003919061072e92919061098b565b508360048190555081816005919061074792919061098b565b50505050505050505050565b6003805461076090610fe8565b80601f016020809104026020016040519081016040528092919081815260200182805461078c90610fe8565b80156107d95780601f106107ae576101008083540402835291602001916107d9565b820191906000526020600020905b8154815290600101906020018083116107bc57829003601f168201915b505050505081565b600660009054906101000a900473ffffffffffffffffffffffffffffffffffffffff1681565b60045481565b60075481565b600154421015610858576040517f08c379a000000000000000000000000000000000000000000000000000000000815260040161084f90611066565b60405180910390fd5b600960009054906101000a900460ff16156108a8576040517f08c379a000000000000000000000000000000000000000000000000000000000815260040161089f906110f8565b60405180910390fd5b6001600960006101000a81548160ff0219169083151502179055507fdaec4582d5d9595688c8c98545fdd1c696d41c6aeaeb636737e84ed2f5c00eda600660009054906101000a900473ffffffffffffffffffffffffffffffffffffffff16600754604051610918929190610f90565b60405180910390a160008054906101000a900473ffffffffffffffffffffffffffffffffffffffff1673ffffffffffffffffffffffffffffffffffffffff166108fc6007549081150290604051600060405180830381858888f19350505050158015610988573d6000803e3d6000fd5b50565b82805461099790610fe8565b90600052602060002090601f0160209004810192826109b95760008555610a00565b82601f106109d257803560ff1916838001178555610a00565b82800160010185558215610a00579182015b828111156109ff5782358255916020019190600101906109e4565b5b509050610a0d9190610a11565b5090565b5b80821115610a2a576000816000905550600101610a12565b5090565b600081519050919050565b600082825260208201905092915050565b60005b83811015610a68578082015181840152602081019050610a4d565b83811115610a77576000848401525b50505050565b6000601f19601f8301169050919050565b6000610a9982610a2e565b610aa38185610a39565b9350610ab3818560208601610a4a565b610abc81610a7d565b840191505092915050565b60006020820190508181036000830152610ae18184610a8e565b905092915050565b600073ffffffffffffffffffffffffffffffffffffffff82169050919050565b6000610b1482610ae9565b9050919050565b610b2481610b09565b82525050565b6000602082019050610b3f6000830184610b1b565b92915050565b60008115159050919050565b610b5a81610b45565b82525050565b6000602082019050610b756000830184610b51565b92915050565b6000819050919050565b610b8e81610b7b565b82525050565b6000602082019050610ba96000830184610b85565b92915050565b600080fd5b600080fd5b610bc281610b09565b8114610bcd57600080fd5b50565b600081359050610bdf81610bb9565b92915050565b600080fd5b600080fd5b600080fd5b60008083601f840112610c0a57610c09610be5565b5b8235905067ffffffffffffffff811115610c2757610c26610bea565b5b602083019150836001820283011115610c4357610c42610bef565b5b9250929050565b610c5381610b7b565b8114610c5e57600080fd5b50565b600081359050610c7081610c4a565b92915050565b600080600080600080600080600060c08a8c031215610c9857610c97610baf565b5b6000610ca68c828d01610bd0565b99505060208a013567ffffffffffffffff811115610cc757610cc6610bb4565b5b610cd38c828d01610bf4565b985098505060408a013567ffffffffffffffff811115610cf657610cf5610bb4565b5b610d028c828d01610bf4565b96509650506060610d158c828d01610c61565b9450506080610d268c828d01610c61565b93505060a08a013567ffffffffffffffff811115610d4757610d46610bb4565b5b610d538c828d01610bf4565b92509250509295985092959850929598565b6000610d7082610ae9565b9050919050565b610d8081610d65565b82525050565b6000602082019050610d9b6000830184610d77565b92915050565b7f41756374696f6e20616c726561647920656e6465642e00000000000000000000600082015250565b6000610dd7601683610a39565b9150610de282610da1565b602082019050919050565b60006020820190508181036000830152610e0681610dca565b9050919050565b7f426964206d75737420626520626967676572207468616e20746865207374617260008201527f74696e6720616d6f756e742e0000000000000000000000000000000000000000602082015250565b6000610e69602c83610a39565b9150610e7482610e0d565b604082019050919050565b60006020820190508181036000830152610e9881610e5c565b9050919050565b7f546865726520616c7265616479206973206120686967686572206269642e0000600082015250565b6000610ed5601e83610a39565b9150610ee082610e9f565b602082019050919050565b60006020820190508181036000830152610f0481610ec8565b9050919050565b7f4e487b7100000000000000000000000000000000000000000000000000000000600052601160045260246000fd5b6000610f4582610b7b565b9150610f5083610b7b565b9250827fffffffffffffffffffffffffffffffffffffffffffffffffffffffffffffffff03821115610f8557610f84610f0b565b5b828201905092915050565b6000604082019050610fa56000830185610d77565b610fb26020830184610b85565b9392505050565b7f4e487b7100000000000000000000000000000000000000000000000000000000600052602260045260246000fd5b6000600282049050600182168061100057607f821691505b6020821081141561101457611013610fb9565b5b50919050565b7f41756374696f6e206e6f742079657420656e6465642e00000000000000000000600082015250565b6000611050601683610a39565b915061105b8261101a565b602082019050919050565b6000602082019050818103600083015261107f81611043565b9050919050565b7f61756374696f6e456e642068617320616c7265616479206265656e2063616c6c60008201527f65642e0000000000000000000000000000000000000000000000000000000000602082015250565b60006110e2602383610a39565b91506110ed82611086565b604082019050919050565b60006020820190508181036000830152611111816110d5565b905091905056fea26469706673582212204025e6665c2d7b0dea146e77868d8ebec67bc3dfbeffe052bb50d6f3748c3bc764736f6c634300080c0033",
  "immutableReferences": {},
  "source": "// SPDX-License-Identifier: GPL-3.0\r\npragma solidity ^0.8.12;\r\ncontract Auction {\r\n   \r\n    // Parameters of the auction. Times are either\r\n    // absolute unix timestamps (seconds since 1970-01-01)\r\n    // or time periods in seconds.\r\n    address payable public beneficiary;\r\n    uint public auctionEndTime;\r\n    string public title;\r\n    string public description;\r\n    uint public startingBid;\r\n    string public linkToImage;\r\n    // Current state of the auction.\r\n    address public highestBidder;\r\n    uint public highestBid;\r\n\r\n    // Allowed withdrawals of previous bids\r\n    mapping(address => uint) pendingReturns;\r\n\r\n    // Set to true at the end, disallows any change.\r\n    // By default initialized to `false`.\r\n    bool ended;\r\n\r\n    // Events that will be emitted on changes.\r\n    event HighestBidIncreased(address bidder, uint amount);\r\n    event AuctionEnded(address winner, uint amount);\r\n\r\n    // The following is a so-called natspec comment,\r\n    // recognizable by the three slashes.\r\n    // It will be shown when the user is asked to\r\n    // confirm a transaction.\r\n\r\n    /// Create a simple auction with `_biddingTime`\r\n    /// seconds bidding time on behalf of the\r\n    /// beneficiary address `_beneficiary`.\r\n   function init(\r\n        address payable _beneficiary,\r\n        string calldata _title,\r\n        string calldata _description,\r\n        uint _startingBid,\r\n        uint _biddingTime,\r\n        string calldata _linkToImage\r\n    ) external {\r\n        beneficiary = _beneficiary;\r\n        auctionEndTime = block.timestamp + _biddingTime;\r\n        title = _title;\r\n        description = _description;\r\n        startingBid = _startingBid;\r\n        linkToImage = _linkToImage;\r\n    }\r\n\r\n    /// Bid on the auction with the value sent\r\n    /// together with this transaction.\r\n    /// The value will only be refunded if the\r\n    /// auction is not won.\r\n    function bid() external payable {\r\n        // No arguments are necessary, all\r\n        // information is already part of\r\n        // the transaction. The keyword payable\r\n        // is required for the function to\r\n        // be able to receive Ether.\r\n\r\n        // Revert the call if the bidding\r\n        // period is over.\r\n        require(\r\n            block.timestamp <= auctionEndTime,\r\n            \"Auction already ended.\"\r\n        );\r\n\r\n        require(msg.value > startingBid,\r\n            \"Bid must be bigger than the starting amount.\"\r\n        );\r\n\r\n        // If the bid is not higher, send the\r\n        // money back.\r\n        require(\r\n            msg.value > highestBid,\r\n            \"There already is a higher bid.\"\r\n        );\r\n\r\n        if (highestBid != startingBid) {\r\n            // Sending back the money by simply using\r\n            // highestBidder.send(highestBid) is a security risk\r\n            // because it could execute an untrusted contract.\r\n            // It is always safer to let the recipients\r\n            // withdraw their money themselves.\r\n            pendingReturns[highestBidder] += highestBid;\r\n        }\r\n        highestBidder = msg.sender;\r\n        highestBid = msg.value;\r\n        emit HighestBidIncreased(msg.sender, msg.value);\r\n    }\r\n\r\n    /// Withdraw a bid that was overbid.\r\n    function withdraw() external returns (bool) {\r\n        uint amount = pendingReturns[msg.sender];\r\n        if (amount > 0) {\r\n            // It is important to set this to zero because the recipient\r\n            // can call this function again as part of the receiving call\r\n            // before `send` returns.\r\n            pendingReturns[msg.sender] = 0;\r\n\r\n            if (!payable(msg.sender).send(amount)) {\r\n                // No need to call throw here, just reset the amount owing\r\n                pendingReturns[msg.sender] = amount;\r\n                return false;\r\n            }\r\n        }\r\n        return true;\r\n    }\r\n\r\n    /// End the auction and send the highest bid\r\n    /// to the beneficiary.\r\n    function endAuction() public {\r\n        // It is a good guideline to structure functions that interact\r\n        // with other contracts (i.e. they call functions or send Ether)\r\n        // into three phases:\r\n        // 1. checking conditions\r\n        // 2. performing actions (potentially changing conditions)\r\n        // 3. interacting with other contracts\r\n        // If these phases are mixed up, the other contract could call\r\n        // back into the current contract and modify the state or cause\r\n        // effects (ether payout) to be performed multiple times.\r\n        // If functions called internally include interaction with external\r\n        // contracts, they also have to be considered interaction with\r\n        // external contracts.\r\n\r\n        // 1. Conditions\r\n        require(block.timestamp >= auctionEndTime, \"Auction not yet ended.\");\r\n        require(!ended, \"auctionEnd has already been called.\");\r\n\r\n        // 2. Effects\r\n        ended = true;\r\n        emit AuctionEnded(highestBidder, highestBid);\r\n\r\n        // 3. Interaction\r\n        beneficiary.transfer(highestBid);\r\n    }\r\n    \r\n}",
  "sourcePath": "D:\\documente\\An3_sem2\\Blockchain\\Proiect\\AuctionSystemDApp\\contracts\\Auction.sol",
  "compiler": {
    "name": "solc",
    "version": "0.8.12+commit.f00d7308.Emscripten.clang"
  },
  "schemaVersion": "3.4.5",
  "updatedAt": "2022-03-13T11:12:36.638Z",
  "networkType": "ethereum",
  "devdoc": {
    "kind": "dev",
    "methods": {},
    "version": 1
  },
  "userdoc": {
    "kind": "user",
    "methods": {
      "bid()": {
        "notice": "Bid on the auction with the value sent together with this transaction. The value will only be refunded if the auction is not won."
      },
      "endAuction()": {
        "notice": "End the auction and send the highest bid to the beneficiary."
      },
      "init(address,string,string,uint256,uint256,string)": {
        "notice": "Create a simple auction with `_biddingTime` seconds bidding time on behalf of the beneficiary address `_beneficiary`."
      },
      "withdraw()": {
        "notice": "Withdraw a bid that was overbid."
      }
    },
    "version": 1
  }
}