{
  "contractName": "AuctionFactory",
  "abi": [
    {
      "inputs": [
        {
          "internalType": "address",
          "name": "_masterContract",
          "type": "address"
        }
      ],
      "stateMutability": "nonpayable",
      "type": "constructor"
    },
    {
      "anonymous": false,
      "inputs": [
        {
          "indexed": false,
          "internalType": "address",
          "name": "_auctionAddress",
          "type": "address"
        },
        {
          "indexed": false,
          "internalType": "address",
          "name": "_beneficiary",
          "type": "address"
        },
        {
          "indexed": false,
          "internalType": "string",
          "name": "_title",
          "type": "string"
        },
        {
          "indexed": false,
          "internalType": "string",
          "name": "_description",
          "type": "string"
        },
        {
          "indexed": false,
          "internalType": "uint256",
          "name": "_startingBid",
          "type": "uint256"
        },
        {
          "indexed": false,
          "internalType": "uint256",
          "name": "_biddingTime",
          "type": "uint256"
        },
        {
          "indexed": false,
          "internalType": "string",
          "name": "_linkToImage",
          "type": "string"
        }
      ],
      "name": "AuctionCreated",
      "type": "event"
    },
    {
      "inputs": [
        {
          "internalType": "address payable",
          "name": "_beneficiary",
          "type": "address"
        },
        {
          "internalType": "string",
          "name": "_title",
          "type": "string"
        },
        {
          "internalType": "string",
          "name": "_description",
          "type": "string"
        },
        {
          "internalType": "uint256",
          "name": "_startingBid",
          "type": "uint256"
        },
        {
          "internalType": "uint256",
          "name": "_biddingTime",
          "type": "uint256"
        },
        {
          "internalType": "string",
          "name": "_linkToImage",
          "type": "string"
        }
      ],
      "name": "createAuction",
      "outputs": [
        {
          "internalType": "address",
          "name": "",
          "type": "address"
        }
      ],
      "stateMutability": "nonpayable",
      "type": "function"
    },
    {
      "inputs": [
        {
          "internalType": "uint256",
          "name": "index",
          "type": "uint256"
        }
      ],
      "name": "getAuction",
      "outputs": [
        {
          "internalType": "contract Auction",
          "name": "",
          "type": "address"
        }
      ],
      "stateMutability": "view",
      "type": "function",
      "constant": true
    },
    {
      "inputs": [],
      "name": "getAuctions",
      "outputs": [
        {
          "internalType": "contract Auction[]",
          "name": "",
          "type": "address[]"
        }
      ],
      "stateMutability": "view",
      "type": "function",
      "constant": true
    }
  ],
  "bytecode": "0x608060405234801561001057600080fd5b50604051610b07380380610b07833981810160405281019061003291906100dc565b80600160006101000a81548173ffffffffffffffffffffffffffffffffffffffff021916908373ffffffffffffffffffffffffffffffffffffffff16021790555050610109565b600080fd5b600073ffffffffffffffffffffffffffffffffffffffff82169050919050565b60006100a98261007e565b9050919050565b6100b98161009e565b81146100c457600080fd5b50565b6000815190506100d6816100b0565b92915050565b6000602082840312156100f2576100f1610079565b5b6000610100848285016100c7565b91505092915050565b6109ef806101186000396000f3fe608060405234801561001057600080fd5b50600436106100415760003560e01c806378bd793514610046578063d7c0691914610076578063e47f405d14610094575b600080fd5b610060600480360381019061005b9190610406565b6100c4565b60405161006d91906104b2565b60405180910390f35b61007e610160565b60405161008b919061058b565b60405180910390f35b6100ae60048036038101906100a99190610650565b6101ee565b6040516100bb9190610760565b60405180910390f35b60008082101580156100db57506000805490508211155b61011a576040517f08c379a0000000000000000000000000000000000000000000000000000000008152600401610111906107d8565b60405180910390fd5b6000828154811061012e5761012d6107f8565b5b9060005260206000200160009054906101000a900473ffffffffffffffffffffffffffffffffffffffff169050919050565b606060008054806020026020016040519081016040528092919081815260200182805480156101e457602002820191906000526020600020905b8160009054906101000a900473ffffffffffffffffffffffffffffffffffffffff1673ffffffffffffffffffffffffffffffffffffffff168152602001906001019080831161019a575b5050505050905090565b60008061021c600160009054906101000a900473ffffffffffffffffffffffffffffffffffffffff1661035c565b90508073ffffffffffffffffffffffffffffffffffffffff166371b81c1a8c8c8c8c8c8c8c8c8c6040518a63ffffffff1660e01b815260040161026799989796959493929190610892565b600060405180830381600087803b15801561028157600080fd5b505af1158015610295573d6000803e3d6000fd5b505050506000819080600181540180825580915050600190039060005260206000200160009091909190916101000a81548173ffffffffffffffffffffffffffffffffffffffff021916908373ffffffffffffffffffffffffffffffffffffffff16021790555060008190507f3b2f4b56f2524d75b56f28a37f40f9f13b66d7e219c47a727dd2dd606732c1b5818d8d8d8d8d8d8d8d8d6040516103429a9998979695949392919061092f565b60405180910390a180925050509998505050505050505050565b6000808260601b90506040517f3d602d80600a3d3981f3363d3d373d3d3d363d7300000000000000000000000081528160148201527f5af43d82803e903d91602b57fd5bf3000000000000000000000000000000000060288201526037816000f092505050919050565b600080fd5b600080fd5b6000819050919050565b6103e3816103d0565b81146103ee57600080fd5b50565b600081359050610400816103da565b92915050565b60006020828403121561041c5761041b6103c6565b5b600061042a848285016103f1565b91505092915050565b600073ffffffffffffffffffffffffffffffffffffffff82169050919050565b6000819050919050565b600061047861047361046e84610433565b610453565b610433565b9050919050565b600061048a8261045d565b9050919050565b600061049c8261047f565b9050919050565b6104ac81610491565b82525050565b60006020820190506104c760008301846104a3565b92915050565b600081519050919050565b600082825260208201905092915050565b6000819050602082019050919050565b61050281610491565b82525050565b600061051483836104f9565b60208301905092915050565b6000602082019050919050565b6000610538826104cd565b61054281856104d8565b935061054d836104e9565b8060005b8381101561057e5781516105658882610508565b975061057083610520565b925050600181019050610551565b5085935050505092915050565b600060208201905081810360008301526105a5818461052d565b905092915050565b60006105b882610433565b9050919050565b6105c8816105ad565b81146105d357600080fd5b50565b6000813590506105e5816105bf565b92915050565b600080fd5b600080fd5b600080fd5b60008083601f8401126106105761060f6105eb565b5b8235905067ffffffffffffffff81111561062d5761062c6105f0565b5b602083019150836001820283011115610649576106486105f5565b5b9250929050565b600080600080600080600080600060c08a8c031215610672576106716103c6565b5b60006106808c828d016105d6565b99505060208a013567ffffffffffffffff8111156106a1576106a06103cb565b5b6106ad8c828d016105fa565b985098505060408a013567ffffffffffffffff8111156106d0576106cf6103cb565b5b6106dc8c828d016105fa565b965096505060606106ef8c828d016103f1565b94505060806107008c828d016103f1565b93505060a08a013567ffffffffffffffff811115610721576107206103cb565b5b61072d8c828d016105fa565b92509250509295985092959850929598565b600061074a82610433565b9050919050565b61075a8161073f565b82525050565b60006020820190506107756000830184610751565b92915050565b600082825260208201905092915050565b7f496e646578206f7574206f6620626f756e647300000000000000000000000000600082015250565b60006107c260138361077b565b91506107cd8261078c565b602082019050919050565b600060208201905081810360008301526107f1816107b5565b9050919050565b7f4e487b7100000000000000000000000000000000000000000000000000000000600052603260045260246000fd5b610830816105ad565b82525050565b82818337600083830152505050565b6000601f19601f8301169050919050565b6000610862838561077b565b935061086f838584610836565b61087883610845565b840190509392505050565b61088c816103d0565b82525050565b600060c0820190506108a7600083018c610827565b81810360208301526108ba818a8c610856565b905081810360408301526108cf81888a610856565b90506108de6060830187610883565b6108eb6080830186610883565b81810360a08301526108fe818486610856565b90509a9950505050505050505050565b60006109198261047f565b9050919050565b6109298161090e565b82525050565b600060e082019050610944600083018d610751565b610951602083018c610920565b8181036040830152610964818a8c610856565b9050818103606083015261097981888a610856565b90506109886080830187610883565b61099560a0830186610883565b81810360c08301526109a8818486610856565b90509b9a505050505050505050505056fea26469706673582212205de8660553daff41b49491406f5308989a5776568aaa7de3f4d15696292d922e64736f6c634300080c0033",
  "immutableReferences": {},
  "source": "// SPDX-License-Identifier: GPL-3.0\r\npragma solidity ^0.8.12;\r\n\r\nimport { Auction } from './Auction.sol';\r\nimport { CloneFactory } from './CloneFactory.sol';\r\n\r\n//Using CloneFactory pattern to optimise gas costs\r\ncontract AuctionFactory is CloneFactory {\r\n    Auction[] auctions;\r\n    address masterContract; // Needed for CloneFactory\r\n\r\n     constructor(address _masterContract) {\r\n         masterContract = _masterContract;\r\n     }\r\n    event AuctionCreated(address _auctionAddress,  \r\n    address _beneficiary,\r\n    string _title, \r\n    string _description,\r\n    uint _startingBid, \r\n    uint _biddingTime, string _linkToImage);\r\n    \r\n    function createAuction(address payable _beneficiary, \r\n    string calldata _title, \r\n    string calldata _description,\r\n    uint _startingBid,\r\n    uint _biddingTime,\r\n    string calldata _linkToImage) external returns(address) {\r\n        Auction newAuction = Auction(createClone(masterContract));\r\n        newAuction.init(_beneficiary, _title, _description, _startingBid, _biddingTime, _linkToImage);\r\n        auctions.push(newAuction);\r\n        address newAuctionAddress = address(newAuction);\r\n        emit AuctionCreated(newAuctionAddress, _beneficiary, _title, _description, _startingBid, _biddingTime, _linkToImage);\r\n        return newAuctionAddress;\r\n    }\r\n\r\n    function getAuction(uint index) external view returns(Auction){\r\n         require(index >=0 && index <= auctions.length,  \"Index out of bounds\");\r\n         return auctions[index];\r\n     }\r\n\r\n    function getAuctions() external view returns(Auction[] memory)\r\n    {\r\n        return auctions;\r\n    }\r\n}",
  "sourcePath": "D:\\documente\\An3_sem2\\Blockchain\\Proiect\\AuctionSystemDApp\\contracts\\AuctionFactory.sol",
  "compiler": {
    "name": "solc",
    "version": "0.8.12+commit.f00d7308.Emscripten.clang"
  },
  "schemaVersion": "3.4.5",
  "updatedAt": "2022-03-13T11:12:36.656Z",
  "networkType": "ethereum",
  "devdoc": {
    "kind": "dev",
    "methods": {},
    "version": 1
  },
  "userdoc": {
    "kind": "user",
    "methods": {},
    "version": 1
  }
}