{
  "contractName": "AuctionFactory",
  "abi": [
    {
      "inputs": [
        {
          "internalType": "address",
          "name": "_masterContract",
          "type": "address"
        }
      ],
      "stateMutability": "nonpayable",
      "type": "constructor"
    },
    {
      "anonymous": false,
      "inputs": [
        {
          "indexed": false,
          "internalType": "address",
          "name": "_auctionAddress",
          "type": "address"
        },
        {
          "indexed": false,
          "internalType": "address",
          "name": "_beneficiary",
          "type": "address"
        },
        {
          "indexed": false,
          "internalType": "string",
          "name": "_title",
          "type": "string"
        },
        {
          "indexed": false,
          "internalType": "string",
          "name": "_description",
          "type": "string"
        },
        {
          "indexed": false,
          "internalType": "uint256",
          "name": "_startingBid",
          "type": "uint256"
        },
        {
          "indexed": false,
          "internalType": "uint256",
          "name": "_biddingTime",
          "type": "uint256"
        }
      ],
      "name": "AuctionCreated",
      "type": "event"
    },
    {
      "inputs": [
        {
          "internalType": "address payable",
          "name": "_beneficiary",
          "type": "address"
        },
        {
          "internalType": "string",
          "name": "_title",
          "type": "string"
        },
        {
          "internalType": "string",
          "name": "_description",
          "type": "string"
        },
        {
          "internalType": "uint256",
          "name": "_startingBid",
          "type": "uint256"
        },
        {
          "internalType": "uint256",
          "name": "_biddingTime",
          "type": "uint256"
        }
      ],
      "name": "createAuction",
      "outputs": [
        {
          "internalType": "address",
          "name": "",
          "type": "address"
        }
      ],
      "stateMutability": "nonpayable",
      "type": "function"
    },
    {
      "inputs": [
        {
          "internalType": "uint256",
          "name": "index",
          "type": "uint256"
        }
      ],
      "name": "getAuction",
      "outputs": [
        {
          "internalType": "contract Auction",
          "name": "",
          "type": "address"
        }
      ],
      "stateMutability": "view",
      "type": "function",
      "constant": true
    },
    {
      "inputs": [],
      "name": "getAuctions",
      "outputs": [
        {
          "internalType": "contract Auction[]",
          "name": "",
          "type": "address[]"
        }
      ],
      "stateMutability": "view",
      "type": "function",
      "constant": true
    }
  ],
  "bytecode": "0x608060405234801561001057600080fd5b50604051610a9c380380610a9c833981810160405281019061003291906100dc565b80600160006101000a81548173ffffffffffffffffffffffffffffffffffffffff021916908373ffffffffffffffffffffffffffffffffffffffff16021790555050610109565b600080fd5b600073ffffffffffffffffffffffffffffffffffffffff82169050919050565b60006100a98261007e565b9050919050565b6100b98161009e565b81146100c457600080fd5b50565b6000815190506100d6816100b0565b92915050565b6000602082840312156100f2576100f1610079565b5b6000610100848285016100c7565b91505092915050565b610984806101186000396000f3fe608060405234801561001057600080fd5b50600436106100415760003560e01c806329be4c221461004657806378bd793514610076578063d7c06919146100a6575b600080fd5b610060600480360381019061005b91906104bf565b6100c4565b60405161006d919061059c565b60405180910390f35b610090600480360381019061008b91906105b7565b610228565b60405161009d9190610643565b60405180910390f35b6100ae6102c4565b6040516100bb919061071c565b60405180910390f35b6000806100f2600160009054906101000a900473ffffffffffffffffffffffffffffffffffffffff16610352565b90508073ffffffffffffffffffffffffffffffffffffffff1663e49db9b38a8a8a8a8a8a8a6040518863ffffffff1660e01b815260040161013997969594939291906107ba565b600060405180830381600087803b15801561015357600080fd5b505af1158015610167573d6000803e3d6000fd5b505050506000819080600181540180825580915050600190039060005260206000200160009091909190916101000a81548173ffffffffffffffffffffffffffffffffffffffff021916908373ffffffffffffffffffffffffffffffffffffffff16021790555060008190507fc23a337490baf4ae867fd15dd687b9add2c3a8cb2777deed8d018f415f573655818b8b8b8b8b8b8b604051610210989796959493929190610840565b60405180910390a18092505050979650505050505050565b600080821015801561023f57506000805490508211155b61027e576040517f08c379a0000000000000000000000000000000000000000000000000000000008152600401610275906108ff565b60405180910390fd5b600082815481106102925761029161091f565b5b9060005260206000200160009054906101000a900473ffffffffffffffffffffffffffffffffffffffff169050919050565b6060600080548060200260200160405190810160405280929190818152602001828054801561034857602002820191906000526020600020905b8160009054906101000a900473ffffffffffffffffffffffffffffffffffffffff1673ffffffffffffffffffffffffffffffffffffffff16815260200190600101908083116102fe575b5050505050905090565b6000808260601b90506040517f3d602d80600a3d3981f3363d3d373d3d3d363d7300000000000000000000000081528160148201527f5af43d82803e903d91602b57fd5bf3000000000000000000000000000000000060288201526037816000f092505050919050565b600080fd5b600080fd5b600073ffffffffffffffffffffffffffffffffffffffff82169050919050565b60006103f1826103c6565b9050919050565b610401816103e6565b811461040c57600080fd5b50565b60008135905061041e816103f8565b92915050565b600080fd5b600080fd5b600080fd5b60008083601f84011261044957610448610424565b5b8235905067ffffffffffffffff81111561046657610465610429565b5b6020830191508360018202830111156104825761048161042e565b5b9250929050565b6000819050919050565b61049c81610489565b81146104a757600080fd5b50565b6000813590506104b981610493565b92915050565b600080600080600080600060a0888a0312156104de576104dd6103bc565b5b60006104ec8a828b0161040f565b975050602088013567ffffffffffffffff81111561050d5761050c6103c1565b5b6105198a828b01610433565b9650965050604088013567ffffffffffffffff81111561053c5761053b6103c1565b5b6105488a828b01610433565b9450945050606061055b8a828b016104aa565b925050608061056c8a828b016104aa565b91505092959891949750929550565b6000610586826103c6565b9050919050565b6105968161057b565b82525050565b60006020820190506105b1600083018461058d565b92915050565b6000602082840312156105cd576105cc6103bc565b5b60006105db848285016104aa565b91505092915050565b6000819050919050565b60006106096106046105ff846103c6565b6105e4565b6103c6565b9050919050565b600061061b826105ee565b9050919050565b600061062d82610610565b9050919050565b61063d81610622565b82525050565b60006020820190506106586000830184610634565b92915050565b600081519050919050565b600082825260208201905092915050565b6000819050602082019050919050565b61069381610622565b82525050565b60006106a5838361068a565b60208301905092915050565b6000602082019050919050565b60006106c98261065e565b6106d38185610669565b93506106de8361067a565b8060005b8381101561070f5781516106f68882610699565b9750610701836106b1565b9250506001810190506106e2565b5085935050505092915050565b6000602082019050818103600083015261073681846106be565b905092915050565b610747816103e6565b82525050565b600082825260208201905092915050565b82818337600083830152505050565b6000601f19601f8301169050919050565b600061078a838561074d565b935061079783858461075e565b6107a08361076d565b840190509392505050565b6107b481610489565b82525050565b600060a0820190506107cf600083018a61073e565b81810360208301526107e281888a61077e565b905081810360408301526107f781868861077e565b905061080660608301856107ab565b61081360808301846107ab565b98975050505050505050565b600061082a82610610565b9050919050565b61083a8161081f565b82525050565b600060c082019050610855600083018b61058d565b610862602083018a610831565b818103604083015261087581888a61077e565b9050818103606083015261088a81868861077e565b905061089960808301856107ab565b6108a660a08301846107ab565b9998505050505050505050565b7f496e646578206f7574206f6620626f756e647300000000000000000000000000600082015250565b60006108e960138361074d565b91506108f4826108b3565b602082019050919050565b60006020820190508181036000830152610918816108dc565b9050919050565b7f4e487b7100000000000000000000000000000000000000000000000000000000600052603260045260246000fdfea264697066735822122077c0eadc62d99123c51ef865aaf819e083d402f0d8a979d6713d65975d59b2f964736f6c634300080c0033",
  "immutableReferences": {},
  "source": "// SPDX-License-Identifier: GPL-3.0\r\npragma solidity ^0.8.12;\r\n\r\nimport { Auction } from './Auction.sol';\r\nimport { CloneFactory } from './CloneFactory.sol';\r\n\r\n//Using CloneFactory pattern to optimise gas costs\r\ncontract AuctionFactory is CloneFactory {\r\n    Auction[] auctions;\r\n    address masterContract; // Needed for CloneFactory\r\n\r\n     constructor(address _masterContract) {\r\n         masterContract = _masterContract;\r\n     }\r\n    event AuctionCreated(address _auctionAddress,  \r\n    address _beneficiary,\r\n    string _title, \r\n    string _description,\r\n    uint _startingBid, \r\n    uint _biddingTime);\r\n    \r\n    function createAuction(address payable _beneficiary, \r\n    string calldata _title, \r\n    string calldata _description,\r\n    uint _startingBid,\r\n    uint _biddingTime) external returns(address) {\r\n        Auction newAuction = Auction(createClone(masterContract));\r\n        newAuction.init(_beneficiary, _title, _description, _startingBid, _biddingTime);\r\n        auctions.push(newAuction);\r\n        address newAuctionAddress = address(newAuction);\r\n        emit AuctionCreated(newAuctionAddress, _beneficiary, _title, _description, _startingBid, _biddingTime);\r\n        return newAuctionAddress;\r\n    }\r\n\r\n    function getAuction(uint index) external view returns(Auction){\r\n         require(index >=0 && index <= auctions.length,  \"Index out of bounds\");\r\n         return auctions[index];\r\n     }\r\n\r\n    function getAuctions() external view returns(Auction[] memory)\r\n    {\r\n        return auctions;\r\n    }\r\n}",
  "sourcePath": "E:\\pet-shop-tutorial\\contracts\\AuctionFactory.sol",
  "compiler": {
    "name": "solc",
    "version": "0.8.12+commit.f00d7308.Emscripten.clang"
  },
  "schemaVersion": "3.4.5",
  "updatedAt": "2022-03-07T06:50:16.944Z",
  "networkType": "ethereum",
  "devdoc": {
    "kind": "dev",
    "methods": {},
    "version": 1
  },
  "userdoc": {
    "kind": "user",
    "methods": {},
    "version": 1
  }
}