{
  "contractName": "Auction",
  "abi": [
    {
      "anonymous": false,
      "inputs": [
        {
          "indexed": false,
          "internalType": "address",
          "name": "winner",
          "type": "address"
        },
        {
          "indexed": false,
          "internalType": "uint256",
          "name": "amount",
          "type": "uint256"
        }
      ],
      "name": "AuctionEnded",
      "type": "event"
    },
    {
      "anonymous": false,
      "inputs": [
        {
          "indexed": false,
          "internalType": "address",
          "name": "bidder",
          "type": "address"
        },
        {
          "indexed": false,
          "internalType": "uint256",
          "name": "amount",
          "type": "uint256"
        }
      ],
      "name": "HighestBidIncreased",
      "type": "event"
    },
    {
      "inputs": [],
      "name": "auctionEndTime",
      "outputs": [
        {
          "internalType": "uint256",
          "name": "",
          "type": "uint256"
        }
      ],
      "stateMutability": "view",
      "type": "function",
      "constant": true
    },
    {
      "inputs": [],
      "name": "beneficiary",
      "outputs": [
        {
          "internalType": "address payable",
          "name": "",
          "type": "address"
        }
      ],
      "stateMutability": "view",
      "type": "function",
      "constant": true
    },
    {
      "inputs": [],
      "name": "description",
      "outputs": [
        {
          "internalType": "string",
          "name": "",
          "type": "string"
        }
      ],
      "stateMutability": "view",
      "type": "function",
      "constant": true
    },
    {
      "inputs": [],
      "name": "highestBid",
      "outputs": [
        {
          "internalType": "uint256",
          "name": "",
          "type": "uint256"
        }
      ],
      "stateMutability": "view",
      "type": "function",
      "constant": true
    },
    {
      "inputs": [],
      "name": "highestBidder",
      "outputs": [
        {
          "internalType": "address",
          "name": "",
          "type": "address"
        }
      ],
      "stateMutability": "view",
      "type": "function",
      "constant": true
    },
    {
      "inputs": [],
      "name": "startingBid",
      "outputs": [
        {
          "internalType": "uint256",
          "name": "",
          "type": "uint256"
        }
      ],
      "stateMutability": "view",
      "type": "function",
      "constant": true
    },
    {
      "inputs": [],
      "name": "title",
      "outputs": [
        {
          "internalType": "string",
          "name": "",
          "type": "string"
        }
      ],
      "stateMutability": "view",
      "type": "function",
      "constant": true
    },
    {
      "inputs": [
        {
          "internalType": "address payable",
          "name": "_beneficiary",
          "type": "address"
        },
        {
          "internalType": "string",
          "name": "_title",
          "type": "string"
        },
        {
          "internalType": "string",
          "name": "_description",
          "type": "string"
        },
        {
          "internalType": "uint256",
          "name": "_startingBid",
          "type": "uint256"
        },
        {
          "internalType": "uint256",
          "name": "_biddingTime",
          "type": "uint256"
        }
      ],
      "name": "init",
      "outputs": [],
      "stateMutability": "nonpayable",
      "type": "function"
    },
    {
      "inputs": [],
      "name": "bid",
      "outputs": [],
      "stateMutability": "payable",
      "type": "function",
      "payable": true
    },
    {
      "inputs": [],
      "name": "withdraw",
      "outputs": [
        {
          "internalType": "bool",
          "name": "",
          "type": "bool"
        }
      ],
      "stateMutability": "nonpayable",
      "type": "function"
    },
    {
      "inputs": [],
      "name": "endAuction",
      "outputs": [],
      "stateMutability": "nonpayable",
      "type": "function"
    }
  ],
  "bytecode": "0x608060405234801561001057600080fd5b50611043806100206000396000f3fe60806040526004361061009c5760003560e01c80637284e416116100645780637284e4161461015757806391f9015714610182578063b9fdd569146101ad578063d57bde79146101d8578063e49db9b314610203578063fe67a54b1461022c5761009c565b80631998aeef146100a157806338af3eed146100ab5780633ccfd60b146100d65780634a79d50c146101015780634b449cba1461012c575b600080fd5b6100a9610243565b005b3480156100b757600080fd5b506100c0610419565b6040516100cd9190610997565b60405180910390f35b3480156100e257600080fd5b506100eb61043d565b6040516100f891906109cd565b60405180910390f35b34801561010d57600080fd5b50610116610561565b6040516101239190610a81565b60405180910390f35b34801561013857600080fd5b506101416105ef565b60405161014e9190610abc565b60405180910390f35b34801561016357600080fd5b5061016c6105f5565b6040516101799190610a81565b60405180910390f35b34801561018e57600080fd5b50610197610683565b6040516101a49190610af8565b60405180910390f35b3480156101b957600080fd5b506101c26106a9565b6040516101cf9190610abc565b60405180910390f35b3480156101e457600080fd5b506101ed6106af565b6040516101fa9190610abc565b60405180910390f35b34801561020f57600080fd5b5061022a60048036038101906102259190610bda565b6106b5565b005b34801561023857600080fd5b5061024161073b565b005b600154421115610288576040517f08c379a000000000000000000000000000000000000000000000000000000000815260040161027f90610ce2565b60405180910390fd5b60045434116102cc576040517f08c379a00000000000000000000000000000000000000000000000000000000081526004016102c390610d74565b60405180910390fd5b6006543411610310576040517f08c379a000000000000000000000000000000000000000000000000000000000815260040161030790610de0565b60405180910390fd5b600454600654146103965760065460076000600560009054906101000a900473ffffffffffffffffffffffffffffffffffffffff1673ffffffffffffffffffffffffffffffffffffffff1673ffffffffffffffffffffffffffffffffffffffff168152602001908152602001600020600082825461038e9190610e2f565b925050819055505b33600560006101000a81548173ffffffffffffffffffffffffffffffffffffffff021916908373ffffffffffffffffffffffffffffffffffffffff160217905550346006819055507ff4757a49b326036464bec6fe419a4ae38c8a02ce3e68bf0809674f6aab8ad300333460405161040f929190610e85565b60405180910390a1565b60008054906101000a900473ffffffffffffffffffffffffffffffffffffffff1681565b600080600760003373ffffffffffffffffffffffffffffffffffffffff1673ffffffffffffffffffffffffffffffffffffffff1681526020019081526020016000205490506000811115610558576000600760003373ffffffffffffffffffffffffffffffffffffffff1673ffffffffffffffffffffffffffffffffffffffff168152602001908152602001600020819055503373ffffffffffffffffffffffffffffffffffffffff166108fc829081150290604051600060405180830381858888f193505050506105575780600760003373ffffffffffffffffffffffffffffffffffffffff1673ffffffffffffffffffffffffffffffffffffffff16815260200190815260200160002081905550600091505061055e565b5b60019150505b90565b6002805461056e90610edd565b80601f016020809104026020016040519081016040528092919081815260200182805461059a90610edd565b80156105e75780601f106105bc576101008083540402835291602001916105e7565b820191906000526020600020905b8154815290600101906020018083116105ca57829003601f168201915b505050505081565b60015481565b6003805461060290610edd565b80601f016020809104026020016040519081016040528092919081815260200182805461062e90610edd565b801561067b5780601f106106505761010080835404028352916020019161067b565b820191906000526020600020905b81548152906001019060200180831161065e57829003601f168201915b505050505081565b600560009054906101000a900473ffffffffffffffffffffffffffffffffffffffff1681565b60045481565b60065481565b866000806101000a81548173ffffffffffffffffffffffffffffffffffffffff021916908373ffffffffffffffffffffffffffffffffffffffff16021790555080426107019190610e2f565b6001819055508585600291906107189291906108b3565b5083836003919061072a9291906108b3565b508160048190555050505050505050565b600154421015610780576040517f08c379a000000000000000000000000000000000000000000000000000000000815260040161077790610f5b565b60405180910390fd5b600860009054906101000a900460ff16156107d0576040517f08c379a00000000000000000000000000000000000000000000000000000000081526004016107c790610fed565b60405180910390fd5b6001600860006101000a81548160ff0219169083151502179055507fdaec4582d5d9595688c8c98545fdd1c696d41c6aeaeb636737e84ed2f5c00eda600560009054906101000a900473ffffffffffffffffffffffffffffffffffffffff16600654604051610840929190610e85565b60405180910390a160008054906101000a900473ffffffffffffffffffffffffffffffffffffffff1673ffffffffffffffffffffffffffffffffffffffff166108fc6006549081150290604051600060405180830381858888f193505050501580156108b0573d6000803e3d6000fd5b50565b8280546108bf90610edd565b90600052602060002090601f0160209004810192826108e15760008555610928565b82601f106108fa57803560ff1916838001178555610928565b82800160010185558215610928579182015b8281111561092757823582559160200191906001019061090c565b5b5090506109359190610939565b5090565b5b8082111561095257600081600090555060010161093a565b5090565b600073ffffffffffffffffffffffffffffffffffffffff82169050919050565b600061098182610956565b9050919050565b61099181610976565b82525050565b60006020820190506109ac6000830184610988565b92915050565b60008115159050919050565b6109c7816109b2565b82525050565b60006020820190506109e260008301846109be565b92915050565b600081519050919050565b600082825260208201905092915050565b60005b83811015610a22578082015181840152602081019050610a07565b83811115610a31576000848401525b50505050565b6000601f19601f8301169050919050565b6000610a53826109e8565b610a5d81856109f3565b9350610a6d818560208601610a04565b610a7681610a37565b840191505092915050565b60006020820190508181036000830152610a9b8184610a48565b905092915050565b6000819050919050565b610ab681610aa3565b82525050565b6000602082019050610ad16000830184610aad565b92915050565b6000610ae282610956565b9050919050565b610af281610ad7565b82525050565b6000602082019050610b0d6000830184610ae9565b92915050565b600080fd5b600080fd5b610b2681610976565b8114610b3157600080fd5b50565b600081359050610b4381610b1d565b92915050565b600080fd5b600080fd5b600080fd5b60008083601f840112610b6e57610b6d610b49565b5b8235905067ffffffffffffffff811115610b8b57610b8a610b4e565b5b602083019150836001820283011115610ba757610ba6610b53565b5b9250929050565b610bb781610aa3565b8114610bc257600080fd5b50565b600081359050610bd481610bae565b92915050565b600080600080600080600060a0888a031215610bf957610bf8610b13565b5b6000610c078a828b01610b34565b975050602088013567ffffffffffffffff811115610c2857610c27610b18565b5b610c348a828b01610b58565b9650965050604088013567ffffffffffffffff811115610c5757610c56610b18565b5b610c638a828b01610b58565b94509450506060610c768a828b01610bc5565b9250506080610c878a828b01610bc5565b91505092959891949750929550565b7f41756374696f6e20616c726561647920656e6465642e00000000000000000000600082015250565b6000610ccc6016836109f3565b9150610cd782610c96565b602082019050919050565b60006020820190508181036000830152610cfb81610cbf565b9050919050565b7f426964206d75737420626520626967676572207468616e20746865207374617260008201527f74696e6720616d6f756e742e0000000000000000000000000000000000000000602082015250565b6000610d5e602c836109f3565b9150610d6982610d02565b604082019050919050565b60006020820190508181036000830152610d8d81610d51565b9050919050565b7f546865726520616c7265616479206973206120686967686572206269642e0000600082015250565b6000610dca601e836109f3565b9150610dd582610d94565b602082019050919050565b60006020820190508181036000830152610df981610dbd565b9050919050565b7f4e487b7100000000000000000000000000000000000000000000000000000000600052601160045260246000fd5b6000610e3a82610aa3565b9150610e4583610aa3565b9250827fffffffffffffffffffffffffffffffffffffffffffffffffffffffffffffffff03821115610e7a57610e79610e00565b5b828201905092915050565b6000604082019050610e9a6000830185610ae9565b610ea76020830184610aad565b9392505050565b7f4e487b7100000000000000000000000000000000000000000000000000000000600052602260045260246000fd5b60006002820490506001821680610ef557607f821691505b60208210811415610f0957610f08610eae565b5b50919050565b7f41756374696f6e206e6f742079657420656e6465642e00000000000000000000600082015250565b6000610f456016836109f3565b9150610f5082610f0f565b602082019050919050565b60006020820190508181036000830152610f7481610f38565b9050919050565b7f61756374696f6e456e642068617320616c7265616479206265656e2063616c6c60008201527f65642e0000000000000000000000000000000000000000000000000000000000602082015250565b6000610fd76023836109f3565b9150610fe282610f7b565b604082019050919050565b6000602082019050818103600083015261100681610fca565b905091905056fea2646970667358221220cedb0b9faf0041e700f08f06d027d68d971f8a7815ec20d951d6a2e10133e60364736f6c634300080c0033",
  "immutableReferences": {},
  "source": "// SPDX-License-Identifier: GPL-3.0\r\npragma solidity ^0.8.12;\r\ncontract Auction {\r\n   \r\n    // Parameters of the auction. Times are either\r\n    // absolute unix timestamps (seconds since 1970-01-01)\r\n    // or time periods in seconds.\r\n    address payable public beneficiary;\r\n    uint public auctionEndTime;\r\n    string public title;\r\n    string public description;\r\n    uint public startingBid;\r\n\r\n    // Current state of the auction.\r\n    address public highestBidder;\r\n    uint public highestBid;\r\n\r\n    // Allowed withdrawals of previous bids\r\n    mapping(address => uint) pendingReturns;\r\n\r\n    // Set to true at the end, disallows any change.\r\n    // By default initialized to `false`.\r\n    bool ended;\r\n\r\n    // Events that will be emitted on changes.\r\n    event HighestBidIncreased(address bidder, uint amount);\r\n    event AuctionEnded(address winner, uint amount);\r\n\r\n    // The following is a so-called natspec comment,\r\n    // recognizable by the three slashes.\r\n    // It will be shown when the user is asked to\r\n    // confirm a transaction.\r\n\r\n    /// Create a simple auction with `_biddingTime`\r\n    /// seconds bidding time on behalf of the\r\n    /// beneficiary address `_beneficiary`.\r\n   function init(\r\n        address payable _beneficiary,\r\n        string calldata _title,\r\n        string calldata _description,\r\n        uint _startingBid,\r\n        uint _biddingTime\r\n    ) external {\r\n        beneficiary = _beneficiary;\r\n        auctionEndTime = block.timestamp + _biddingTime;\r\n        title = _title;\r\n        description = _description;\r\n        startingBid = _startingBid;\r\n    }\r\n\r\n    /// Bid on the auction with the value sent\r\n    /// together with this transaction.\r\n    /// The value will only be refunded if the\r\n    /// auction is not won.\r\n    function bid() external payable {\r\n        // No arguments are necessary, all\r\n        // information is already part of\r\n        // the transaction. The keyword payable\r\n        // is required for the function to\r\n        // be able to receive Ether.\r\n\r\n        // Revert the call if the bidding\r\n        // period is over.\r\n        require(\r\n            block.timestamp <= auctionEndTime,\r\n            \"Auction already ended.\"\r\n        );\r\n\r\n        require(msg.value > startingBid,\r\n            \"Bid must be bigger than the starting amount.\"\r\n        );\r\n\r\n        // If the bid is not higher, send the\r\n        // money back.\r\n        require(\r\n            msg.value > highestBid,\r\n            \"There already is a higher bid.\"\r\n        );\r\n\r\n        if (highestBid != startingBid) {\r\n            // Sending back the money by simply using\r\n            // highestBidder.send(highestBid) is a security risk\r\n            // because it could execute an untrusted contract.\r\n            // It is always safer to let the recipients\r\n            // withdraw their money themselves.\r\n            pendingReturns[highestBidder] += highestBid;\r\n        }\r\n        highestBidder = msg.sender;\r\n        highestBid = msg.value;\r\n        emit HighestBidIncreased(msg.sender, msg.value);\r\n    }\r\n\r\n    /// Withdraw a bid that was overbid.\r\n    function withdraw() external returns (bool) {\r\n        uint amount = pendingReturns[msg.sender];\r\n        if (amount > 0) {\r\n            // It is important to set this to zero because the recipient\r\n            // can call this function again as part of the receiving call\r\n            // before `send` returns.\r\n            pendingReturns[msg.sender] = 0;\r\n\r\n            if (!payable(msg.sender).send(amount)) {\r\n                // No need to call throw here, just reset the amount owing\r\n                pendingReturns[msg.sender] = amount;\r\n                return false;\r\n            }\r\n        }\r\n        return true;\r\n    }\r\n\r\n    /// End the auction and send the highest bid\r\n    /// to the beneficiary.\r\n    function endAuction() public {\r\n        // It is a good guideline to structure functions that interact\r\n        // with other contracts (i.e. they call functions or send Ether)\r\n        // into three phases:\r\n        // 1. checking conditions\r\n        // 2. performing actions (potentially changing conditions)\r\n        // 3. interacting with other contracts\r\n        // If these phases are mixed up, the other contract could call\r\n        // back into the current contract and modify the state or cause\r\n        // effects (ether payout) to be performed multiple times.\r\n        // If functions called internally include interaction with external\r\n        // contracts, they also have to be considered interaction with\r\n        // external contracts.\r\n\r\n        // 1. Conditions\r\n        require(block.timestamp >= auctionEndTime, \"Auction not yet ended.\");\r\n        require(!ended, \"auctionEnd has already been called.\");\r\n\r\n        // 2. Effects\r\n        ended = true;\r\n        emit AuctionEnded(highestBidder, highestBid);\r\n\r\n        // 3. Interaction\r\n        beneficiary.transfer(highestBid);\r\n    }\r\n    \r\n}",
  "sourcePath": "E:\\pet-shop-tutorial\\contracts\\Auction.sol",
  "compiler": {
    "name": "solc",
    "version": "0.8.12+commit.f00d7308.Emscripten.clang"
  },
  "schemaVersion": "3.4.5",
  "updatedAt": "2022-03-07T06:50:16.936Z",
  "networkType": "ethereum",
  "devdoc": {
    "kind": "dev",
    "methods": {},
    "version": 1
  },
  "userdoc": {
    "kind": "user",
    "methods": {
      "bid()": {
        "notice": "Bid on the auction with the value sent together with this transaction. The value will only be refunded if the auction is not won."
      },
      "endAuction()": {
        "notice": "End the auction and send the highest bid to the beneficiary."
      },
      "init(address,string,string,uint256,uint256)": {
        "notice": "Create a simple auction with `_biddingTime` seconds bidding time on behalf of the beneficiary address `_beneficiary`."
      },
      "withdraw()": {
        "notice": "Withdraw a bid that was overbid."
      }
    },
    "version": 1
  }
}